:1000000033C000004CC000004AC0000048C00000DF
:1000100046C0000044C0000042C0000040C00000D4
:100020003EC000003CC000003AC0000038C00000E4
:1000300036C0000034C0000032C0000030C00000F4
:100040002EC000002CC000002AC0000028C0000004
:1000500026C0000024C0000022C0000020C0000014
:100060001EC000001CC0000011241FBECFEFD8E04E
:10007000DEBFCDBF11E0A0E0B1E0E0EBF1E002C0F7
:1000800005900D92A434B107D9F721E0A4E4B1E0C2
:1000900001C01D92A835B207E1F773D087C0B0CF79
:1000A0001092C50087E68093C400E0ECF0E0808108
:1000B0008D7F808388E18093C10086E08093C200B9
:1000C0000895E0ECF0E080818823ECF78091C60091
:1000D0000895EF92FF921F93CF93DF93EC01E62EEA
:1000E000F0DF8A30A9F0F12C91E0E91AF1081E1432
:1000F0001F0474F410E02196FE01319780831F5F86
:10010000E0DF8A3029F0212F30E02E153F059CF3E7
:100110001882DF91CF911F91FF90EF900895E0EC4E
:10012000F0E0908195FFFDCF8093C6000895CF93B6
:10013000DF93EC018881882329F02196F0DF8991F3
:100140008111FCCFDF91CF910895FC0120812433F0
:10015000A1F4DC011196EAE3F1E024E431E004C00B
:100160009D91819198130BC00000000000000000D9
:10017000E217F307A9F781E0089580E0089580E091
:1001800008958EDF80E091E0D2DF6BE084E491E0BF
:10019000A0DF84E491E0D9DF882321F08CE191E0B5
:1001A000C6DFF0CF8FE291E0C2DFECCFF894FFCF53
:1001B00031302D7374656C6C696765206E756D6583
:1001C0007269736368652050696E3A000A232323BD
:1001D000204B6F7272656B7421202323230A000A5F
:1001E00046616C736368210A00343230383135342B
:0401F0003731310072
:00000001FF
